{
  "contractName": "People",
  "abi": [
    {
      "constant": true,
      "inputs": [
        {
          "name": "",
          "type": "uint256"
        }
      ],
      "name": "people",
      "outputs": [
        {
          "name": "firstName",
          "type": "bytes32"
        },
        {
          "name": "lastName",
          "type": "bytes32"
        },
        {
          "name": "age",
          "type": "uint256"
        }
      ],
      "payable": false,
      "stateMutability": "view",
      "type": "function"
    },
    {
      "constant": false,
      "inputs": [
        {
          "name": "_firstName",
          "type": "bytes32"
        },
        {
          "name": "_lastName",
          "type": "bytes32"
        },
        {
          "name": "_age",
          "type": "uint256"
        }
      ],
      "name": "addPerson",
      "outputs": [
        {
          "name": "success",
          "type": "bool"
        }
      ],
      "payable": false,
      "stateMutability": "nonpayable",
      "type": "function"
    },
    {
      "constant": true,
      "inputs": [],
      "name": "getPeople",
      "outputs": [
        {
          "name": "",
          "type": "bytes32[]"
        },
        {
          "name": "",
          "type": "bytes32[]"
        },
        {
          "name": "",
          "type": "uint256[]"
        }
      ],
      "payable": false,
      "stateMutability": "view",
      "type": "function"
    }
  ],
  "bytecode": "0x6060604052341561000f57600080fd5b61056b8061001e6000396000f300606060405260043610610057576000357c0100000000000000000000000000000000000000000000000000000000900463ffffffff1680634f995d081461005c578063773b82a3146101565780639e7a13ad146101ab575b600080fd5b341561006757600080fd5b61006f610200565b60405180806020018060200180602001848103845287818151815260200191508051906020019060200280838360005b838110156100ba57808201518184015260208101905061009f565b50505050905001848103835286818151815260200191508051906020019060200280838360005b838110156100fc5780820151818401526020810190506100e1565b50505050905001848103825285818151815260200191508051906020019060200280838360005b8381101561013e578082015181840152602081019050610123565b50505050905001965050505050505060405180910390f35b341561016157600080fd5b610191600480803560001916906020019091908035600019169060200190919080359060200190919050506103ae565b604051808215151515815260200191505060405180910390f35b34156101b657600080fd5b6101cc600480803590602001909190505061044d565b6040518084600019166000191681526020018360001916600019168152602001828152602001935050505060405180910390f35b610208610486565b610210610486565b61021861049a565b610220610486565b610228610486565b61023061049a565b600061023a6104ae565b60008054905060405180591061024d5750595b908082528060200260200182016040525094506000805490506040518059106102735750595b908082528060200260200182016040525093506000805490506040518059106102995750595b90808252806020026020018201604052509250600091505b60008054905082101561039b576000828154811015156102cd57fe5b90600052602060002090600302016060604051908101604052908160008201546000191660001916815260200160018201546000191660001916815260200160028201548152505090508060000151858381518110151561032a57fe5b9060200190602002019060001916908160001916815250508060200151848381518110151561035557fe5b9060200190602002019060001916908160001916815250508060400151838381518110151561038057fe5b906020019060200201818152505081806001019250506102b1565b8484849750975097505050505050909192565b60006103b86104ae565b8481600001906000191690816000191681525050838160200190600019169081600019168152505082816040018181525050600080548060010182816103fe91906104d6565b9160005260206000209060030201600083909190915060008201518160000190600019169055602082015181600101906000191690556040820151816002015550505060019150509392505050565b60008181548110151561045c57fe5b90600052602060002090600302016000915090508060000154908060010154908060020154905083565b602060405190810160405280600081525090565b602060405190810160405280600081525090565b6060604051908101604052806000801916815260200160008019168152602001600081525090565b815481835581811511610503576003028160030283600052602060002091820191016105029190610508565b5b505050565b61053c91905b8082111561053857600080820160009055600182016000905560028201600090555060030161050e565b5090565b905600a165627a7a7230582090dc8684d3d3ca65dedffccbb750922ac4d699d06b99c2712db385762fa8907d0029",
  "source": "pragma solidity ^0.4.19;\ncontract People {\n    \n    Person[] public people;\n    \n    struct Person {\n        bytes32 firstName;\n        bytes32 lastName;\n        uint age;\n    }\n    \n    function addPerson(bytes32 _firstName, bytes32 _lastName, uint256 _age) returns (bool success) {\n        Person memory newPerson;\n        newPerson.firstName = _firstName;\n        newPerson.lastName = _lastName;\n        newPerson.age = _age;\n        people.push(newPerson);\n\t\treturn true;\n    }\n    \n    function getPeople() public view returns(bytes32[], bytes32[], uint256[]) {\n        bytes32[] memory firstNames = new bytes32[](people.length);\n        bytes32[] memory lastNames = new bytes32[](people.length);\n        uint[] memory ages = new uint[](people.length);\n        \n        for(uint256 i = 0; i < people.length; i++) {\n            Person memory currentPerson;\n            currentPerson = people[i];\n            firstNames[i] = currentPerson.firstName;\n            lastNames[i] = currentPerson.lastName;\n            ages[i] = currentPerson.age;\n        }\n        return(firstNames, lastNames, ages);\n    }\n  \n}\n",
  "sourcePath": "/home/zubin/Desktop/peoplelist/contracts/People.sol",
  "compiler": {
    "name": "solc",
    "version": "0.4.19+commit.c4cbbb05.Emscripten.clang"
  },
  "schemaVersion": "2.0.0",
  "updatedAt": "2018-04-11T17:09:48.443Z"
}