{
  "contractName": "Test",
  "abi": [
    {
      "constant": true,
      "inputs": [
        {
          "name": "",
          "type": "uint256"
        }
      ],
      "name": "people",
      "outputs": [
        {
          "name": "firstName",
          "type": "bytes32"
        },
        {
          "name": "lastName",
          "type": "bytes32"
        },
        {
          "name": "age",
          "type": "uint256"
        }
      ],
      "payable": false,
      "stateMutability": "view",
      "type": "function"
    },
    {
      "constant": true,
      "inputs": [],
      "name": "getA",
      "outputs": [
        {
          "name": "success",
          "type": "bool"
        }
      ],
      "payable": false,
      "stateMutability": "view",
      "type": "function"
    },
    {
      "constant": true,
      "inputs": [],
      "name": "getPeople",
      "outputs": [
        {
          "name": "",
          "type": "bytes32"
        },
        {
          "name": "",
          "type": "bytes32"
        },
        {
          "name": "",
          "type": "uint256"
        }
      ],
      "payable": false,
      "stateMutability": "view",
      "type": "function"
    }
  ],
  "bytecode": "0x6060604052341561000f57600080fd5b61036a8061001e6000396000f300606060405260043610610057576000357c0100000000000000000000000000000000000000000000000000000000900463ffffffff1680634f995d081461005c5780639e7a13ad146100a3578063d46300fd146100f8575b600080fd5b341561006757600080fd5b61006f610125565b6040518084600019166000191681526020018360001916600019168152602001828152602001935050505060405180910390f35b34156100ae57600080fd5b6100c46004808035906020019091905050610198565b6040518084600019166000191681526020018360001916600019168152602001828152602001935050505060405180910390f35b341561010357600080fd5b61010b6101d1565b604051808215151515815260200191505060405180910390f35b600080600080600081548110151561013957fe5b90600052602060002090600302016000015460008081548110151561015a57fe5b90600052602060002090600302016001015460008081548110151561017b57fe5b906000526020600020906003020160020154925092509250909192565b6000818154811015156101a757fe5b90600052602060002090600302016000915090508060000154908060010154908060020154905083565b60006101db6102ad565b7f6a67686a67000000000000000000000000000000000000000000000000000000816000019060001916908160001916815250507f6a6a68676a67686a67680000000000000000000000000000000000000000000081602001906000191690816000191681525050600a8160400181815250506000805480600101828161026291906102d5565b91600052602060002090600302016000839091909150600082015181600001906000191690556020820151816001019060001916905560408201518160020155505050600191505090565b6060604051908101604052806000801916815260200160008019168152602001600081525090565b815481835581811511610302576003028160030283600052602060002091820191016103019190610307565b5b505050565b61033b91905b8082111561033757600080820160009055600182016000905560028201600090555060030161030d565b5090565b905600a165627a7a723058207770ad3df62d0de5695f6c1c16fc2ccf2b564ba7039a677b90b1aed939025b350029",
  "source": "pragma solidity ^0.4.19;\ncontract Test {\n   \n    struct Person {\n        bytes32 firstName;\n        bytes32 lastName;\n        uint256 age;\n    }\n\t\n\tPerson[] public people;\n\t\n    function getA() public constant returns (bool success) {\n\t\tPerson memory newPerson;\n        newPerson.firstName = \"jghjg\";\n        newPerson.lastName = \"jjhgjghjgh\";\n        newPerson.age = 10;\n        people.push(newPerson);\t\t\n        return true;\n    }\n\t\n\tfunction getPeople() public constant returns(bytes32, bytes32, uint256) {\n        return (people[0].firstName, people[0].lastName, people[0].age);\n    }\n}",
  "sourcePath": "/home/zubin/Desktop/peoplelist/contracts/Test.sol",
  "compiler": {
    "name": "solc",
    "version": "0.4.19+commit.c4cbbb05.Emscripten.clang"
  },
  "schemaVersion": "2.0.0",
  "updatedAt": "2018-04-07T23:15:28.411Z"
}